{
  "address": "0xaB74A98e36237C4B7FF876a8Ca29d6E1579d19Fe",
  "abi": [
    {
      "inputs": [
        {
          "internalType": "contract IPredicto",
          "name": "_predicto",
          "type": "address"
        },
        {
          "internalType": "address",
          "name": "_feeTo",
          "type": "address"
        },
        {
          "internalType": "uint256",
          "name": "_eraInterval",
          "type": "uint256"
        },
        {
          "internalType": "uint256",
          "name": "_startBlock",
          "type": "uint256"
        }
      ],
      "stateMutability": "nonpayable",
      "type": "constructor"
    },
    {
      "anonymous": false,
      "inputs": [
        {
          "indexed": true,
          "internalType": "address",
          "name": "user",
          "type": "address"
        },
        {
          "indexed": true,
          "internalType": "uint256",
          "name": "pid",
          "type": "uint256"
        },
        {
          "indexed": false,
          "internalType": "uint256",
          "name": "amount",
          "type": "uint256"
        }
      ],
      "name": "Deposit",
      "type": "event"
    },
    {
      "anonymous": false,
      "inputs": [
        {
          "indexed": true,
          "internalType": "address",
          "name": "user",
          "type": "address"
        },
        {
          "indexed": true,
          "internalType": "uint256",
          "name": "pid",
          "type": "uint256"
        },
        {
          "indexed": false,
          "internalType": "uint256",
          "name": "amount",
          "type": "uint256"
        }
      ],
      "name": "EmergencyWithdraw",
      "type": "event"
    },
    {
      "anonymous": false,
      "inputs": [
        {
          "indexed": true,
          "internalType": "address",
          "name": "previousOwner",
          "type": "address"
        },
        {
          "indexed": true,
          "internalType": "address",
          "name": "newOwner",
          "type": "address"
        }
      ],
      "name": "OwnershipTransferred",
      "type": "event"
    },
    {
      "anonymous": false,
      "inputs": [
        {
          "indexed": true,
          "internalType": "address",
          "name": "user",
          "type": "address"
        },
        {
          "indexed": true,
          "internalType": "uint256",
          "name": "pid",
          "type": "uint256"
        },
        {
          "indexed": false,
          "internalType": "uint256",
          "name": "amount",
          "type": "uint256"
        }
      ],
      "name": "Withdraw",
      "type": "event"
    },
    {
      "inputs": [],
      "name": "BONUS_END_BLOCK",
      "outputs": [
        {
          "internalType": "uint256",
          "name": "",
          "type": "uint256"
        }
      ],
      "stateMutability": "view",
      "type": "function"
    },
    {
      "inputs": [],
      "name": "BONUS_MULTIPLIER",
      "outputs": [
        {
          "internalType": "uint256",
          "name": "",
          "type": "uint256"
        }
      ],
      "stateMutability": "view",
      "type": "function"
    },
    {
      "inputs": [
        {
          "internalType": "uint256",
          "name": "_allocPoint",
          "type": "uint256"
        },
        {
          "internalType": "contract IERC20",
          "name": "_lpToken",
          "type": "address"
        },
        {
          "internalType": "bool",
          "name": "_withUpdate",
          "type": "bool"
        }
      ],
      "name": "add",
      "outputs": [],
      "stateMutability": "nonpayable",
      "type": "function"
    },
    {
      "inputs": [],
      "name": "currentEra",
      "outputs": [
        {
          "internalType": "uint256",
          "name": "",
          "type": "uint256"
        }
      ],
      "stateMutability": "view",
      "type": "function"
    },
    {
      "inputs": [
        {
          "internalType": "uint256",
          "name": "_pid",
          "type": "uint256"
        },
        {
          "internalType": "uint256",
          "name": "_amount",
          "type": "uint256"
        }
      ],
      "name": "deposit",
      "outputs": [],
      "stateMutability": "nonpayable",
      "type": "function"
    },
    {
      "inputs": [
        {
          "internalType": "uint256",
          "name": "_pid",
          "type": "uint256"
        }
      ],
      "name": "emergencyWithdraw",
      "outputs": [],
      "stateMutability": "nonpayable",
      "type": "function"
    },
    {
      "inputs": [],
      "name": "eraInterval",
      "outputs": [
        {
          "internalType": "uint256",
          "name": "",
          "type": "uint256"
        }
      ],
      "stateMutability": "view",
      "type": "function"
    },
    {
      "inputs": [],
      "name": "feeTo",
      "outputs": [
        {
          "internalType": "address",
          "name": "",
          "type": "address"
        }
      ],
      "stateMutability": "view",
      "type": "function"
    },
    {
      "inputs": [
        {
          "internalType": "uint256",
          "name": "_from",
          "type": "uint256"
        },
        {
          "internalType": "uint256",
          "name": "_to",
          "type": "uint256"
        }
      ],
      "name": "getMultiplier",
      "outputs": [
        {
          "internalType": "uint256",
          "name": "",
          "type": "uint256"
        }
      ],
      "stateMutability": "pure",
      "type": "function"
    },
    {
      "inputs": [],
      "name": "massUpdatePools",
      "outputs": [],
      "stateMutability": "nonpayable",
      "type": "function"
    },
    {
      "inputs": [],
      "name": "owner",
      "outputs": [
        {
          "internalType": "address",
          "name": "",
          "type": "address"
        }
      ],
      "stateMutability": "view",
      "type": "function"
    },
    {
      "inputs": [
        {
          "internalType": "uint256",
          "name": "_pid",
          "type": "uint256"
        },
        {
          "internalType": "address",
          "name": "_user",
          "type": "address"
        }
      ],
      "name": "pendingPredicto",
      "outputs": [
        {
          "internalType": "uint256",
          "name": "",
          "type": "uint256"
        }
      ],
      "stateMutability": "view",
      "type": "function"
    },
    {
      "inputs": [
        {
          "internalType": "uint256",
          "name": "",
          "type": "uint256"
        }
      ],
      "name": "poolInfo",
      "outputs": [
        {
          "internalType": "contract IERC20",
          "name": "lpToken",
          "type": "address"
        },
        {
          "internalType": "uint256",
          "name": "allocPoint",
          "type": "uint256"
        },
        {
          "internalType": "uint256",
          "name": "lastRewardBlock",
          "type": "uint256"
        },
        {
          "internalType": "uint256",
          "name": "accPredictoPerShare",
          "type": "uint256"
        }
      ],
      "stateMutability": "view",
      "type": "function"
    },
    {
      "inputs": [],
      "name": "poolLength",
      "outputs": [
        {
          "internalType": "uint256",
          "name": "",
          "type": "uint256"
        }
      ],
      "stateMutability": "view",
      "type": "function"
    },
    {
      "inputs": [],
      "name": "predicto",
      "outputs": [
        {
          "internalType": "contract IPredicto",
          "name": "",
          "type": "address"
        }
      ],
      "stateMutability": "view",
      "type": "function"
    },
    {
      "inputs": [],
      "name": "predictoPerBlock",
      "outputs": [
        {
          "internalType": "uint256",
          "name": "",
          "type": "uint256"
        }
      ],
      "stateMutability": "view",
      "type": "function"
    },
    {
      "inputs": [],
      "name": "renounceOwnership",
      "outputs": [],
      "stateMutability": "nonpayable",
      "type": "function"
    },
    {
      "inputs": [
        {
          "internalType": "uint256",
          "name": "_pid",
          "type": "uint256"
        },
        {
          "internalType": "uint256",
          "name": "_allocPoint",
          "type": "uint256"
        },
        {
          "internalType": "bool",
          "name": "_withUpdate",
          "type": "bool"
        }
      ],
      "name": "set",
      "outputs": [],
      "stateMutability": "nonpayable",
      "type": "function"
    },
    {
      "inputs": [],
      "name": "startBlock",
      "outputs": [
        {
          "internalType": "uint256",
          "name": "",
          "type": "uint256"
        }
      ],
      "stateMutability": "view",
      "type": "function"
    },
    {
      "inputs": [],
      "name": "totalAllocPoint",
      "outputs": [
        {
          "internalType": "uint256",
          "name": "",
          "type": "uint256"
        }
      ],
      "stateMutability": "view",
      "type": "function"
    },
    {
      "inputs": [
        {
          "internalType": "address",
          "name": "newOwner",
          "type": "address"
        }
      ],
      "name": "transferOwnership",
      "outputs": [],
      "stateMutability": "nonpayable",
      "type": "function"
    },
    {
      "inputs": [
        {
          "internalType": "uint256",
          "name": "_pid",
          "type": "uint256"
        }
      ],
      "name": "updatePool",
      "outputs": [],
      "stateMutability": "nonpayable",
      "type": "function"
    },
    {
      "inputs": [
        {
          "internalType": "uint256",
          "name": "",
          "type": "uint256"
        },
        {
          "internalType": "address",
          "name": "",
          "type": "address"
        }
      ],
      "name": "userInfo",
      "outputs": [
        {
          "internalType": "uint256",
          "name": "amount",
          "type": "uint256"
        },
        {
          "internalType": "uint256",
          "name": "rewardDebt",
          "type": "uint256"
        }
      ],
      "stateMutability": "view",
      "type": "function"
    },
    {
      "inputs": [
        {
          "internalType": "uint256",
          "name": "_pid",
          "type": "uint256"
        },
        {
          "internalType": "uint256",
          "name": "_amount",
          "type": "uint256"
        }
      ],
      "name": "withdraw",
      "outputs": [],
      "stateMutability": "nonpayable",
      "type": "function"
    }
  ],
  "transactionHash": "0x646335a681bc16714c4a38cceb46f92338158035deb92f965aadd97ef93e9b74",
  "args": [
    "0xd7e1a41A86e9973C16458Fb05DcBBFE31f9804De",
    "0xb72c3462a6CB536301C789E4F47df471f5F2802C",
    1531250,
    7679245
  ],
  "solcInputHash": "027d3c9bdbdcada5740dfa594dc5d275",
  "bytecode": "0x610100604052600060035534801561001657600080fd5b50604051611a34380380611a348339818101604052608081101561003957600080fd5b5080516020820151604083015160609093015191929091600061005a6100cc565b600080546001600160a01b0319166001600160a01b0383169081178255604051929350917f8be0079c531659141344cd1fd0a4f28419497f9722a3daafe3b4186f6b6457e0908290a3506001600160601b0319606094851b81166080529290931b90911660a05260c05260e0526100d0565b3390565b60805160601c60a05160601c60c05160e0516118f761013d600039806104ec528061051352806107955280610d56525080610d315280610eec5250806103dd52806108de52508061045652806108b7528061098852806112a3528061134652806113ef52506118f76000f3fe608060405234801561001057600080fd5b50600436106101585760003560e01c806364482f79116100c357806393f1a40b1161007c57806393f1a40b14610311578063973628f614610356578063c8ce6c8f1461035e578063d998b8a11461038a578063e2bbb15814610392578063f2fde38b146103b557610158565b806364482f79146102a3578063715018a6146102ce578063774e812b146102d65780638aa28550146102de5780638da5cb5b146102e65780638dbb1e3a146102ee57610158565b80631eaaa045116101155780631eaaa04514610200578063441a3e701461023657806348cd4cb11461025957806351eb05a6146102615780635312ea8e1461027e578063630b5ba11461029b57610158565b8063017e7e581461015d5780630523e74814610181578063081e3eda1461019b5780631526fe27146101a357806317caf6f1146101f0578063190713bb146101f8575b600080fd5b6101656103db565b604080516001600160a01b039092168252519081900360200190f35b6101896103ff565b60408051918252519081900360200190f35b610189610404565b6101c0600480360360208110156101b957600080fd5b503561040a565b604080516001600160a01b0390951685526020850193909352838301919091526060830152519081900360800190f35b61018961044e565b610165610454565b6102346004803603606081101561021657600080fd5b508035906001600160a01b0360208201351690604001351515610478565b005b6102346004803603604081101561024c57600080fd5b5080359060200135610638565b610189610793565b6102346004803603602081101561027757600080fd5b50356107b7565b6102346004803603602081101561029457600080fd5b5035610a59565b610234610af4565b610234600480360360608110156102b957600080fd5b50803590602081013590604001351515610b17565b610234610bf2565b610189610c9e565b610189610cc3565b610165610cc8565b6101896004803603604081101561030457600080fd5b5080359060200135610cd7565b61033d6004803603604081101561032757600080fd5b50803590602001356001600160a01b0316610d06565b6040805192835260208301919091528051918290030190f35b610189610d2a565b6101896004803603604081101561037457600080fd5b50803590602001356001600160a01b0316610d7a565b610189610eea565b610234600480360360408110156103a857600080fd5b5080359060200135610f0e565b610234600480360360208110156103cb57600080fd5b50356001600160a01b031661101b565b7f000000000000000000000000000000000000000000000000000000000000000081565b600081565b60015490565b6001818154811061041a57600080fd5b600091825260209091206004909102018054600182015460028301546003909301546001600160a01b039092169350919084565b60035481565b7f000000000000000000000000000000000000000000000000000000000000000081565b61048061111d565b6001600160a01b0316610491610cc8565b6001600160a01b0316146104da576040805162461bcd60e51b81526020600482018190526024820152600080516020611878833981519152604482015290519081900360640190fd5b80156104e8576104e8610af4565b60007f00000000000000000000000000000000000000000000000000000000000000004311610537577f0000000000000000000000000000000000000000000000000000000000000000610539565b435b6003549091506105499085611121565b600355604080516080810182526001600160a01b03948516815260208101958652908101918252600060608201818152600180548082018255925291517fb10e2d527612073b26eecdfd717e6a320cf44b4afac2b0732d9fcbe2b7fa0cf6600490920291820180546001600160a01b031916919096161790945593517fb10e2d527612073b26eecdfd717e6a320cf44b4afac2b0732d9fcbe2b7fa0cf7840155517fb10e2d527612073b26eecdfd717e6a320cf44b4afac2b0732d9fcbe2b7fa0cf88301555090517fb10e2d527612073b26eecdfd717e6a320cf44b4afac2b0732d9fcbe2b7fa0cf990910155565b60006001838154811061064757fe5b6000918252602080832086845260028252604080852033865290925292208054600490920290920192508311156106ba576040805162461bcd60e51b81526020600482015260126024820152711dda5d1a191c985dce881b9bdd0819dbdbd960721b604482015290519081900360640190fd5b6106c3846107b7565b600061070182600101546106fb68056bc75e2d631000006106f58760030154876000015461118290919063ffffffff16565b906111db565b90611242565b905061070d338261129f565b81546107199085611242565b808355600384015461073a9168056bc75e2d63100000916106f59190611182565b60018301558254610755906001600160a01b03163386611496565b604080518581529051869133917ff279e6a1f5e320cca91135676d9cb6e44ca8a08c0b88342bcdb1144f6511b5689181900360200190a35050505050565b7f000000000000000000000000000000000000000000000000000000000000000081565b6000600182815481106107c657fe5b90600052602060002090600402019050806002015443116107e75750610a56565b8054604080516370a0823160e01b815230600482015290516000926001600160a01b0316916370a08231916024808301926020929190829003018186803b15801561083157600080fd5b505afa158015610845573d6000803e3d6000fd5b505050506040513d602081101561085b57600080fd5b5051905080610871575043600290910155610a56565b6000610881836002015443610cd7565b905060006108ab6003546106f586600101546108a561089e610c9e565b8790611182565b90611182565b90506001600160a01b037f0000000000000000000000000000000000000000000000000000000000000000166340c10f197f000000000000000000000000000000000000000000000000000000000000000061090884600a6111db565b6040518363ffffffff1660e01b815260040180836001600160a01b0316815260200182815260200192505050600060405180830381600087803b15801561094e57600080fd5b505af1158015610962573d6000803e3d6000fd5b5050505061098461097d600a836111db90919063ffffffff16565b8290611242565b90507f00000000000000000000000000000000000000000000000000000000000000006001600160a01b03166340c10f1930836040518363ffffffff1660e01b815260040180836001600160a01b0316815260200182815260200192505050600060405180830381600087803b1580156109fd57600080fd5b505af1158015610a11573d6000803e3d6000fd5b50505050610a43610a38846106f568056bc75e2d631000008561118290919063ffffffff16565b600386015490611121565b6003850155505043600290920191909155505b50565b600060018281548110610a6857fe5b60009182526020808320858452600282526040808520338087529352909320805460049093029093018054909450610aad926001600160a01b03919091169190611496565b80546040805191825251849133917fbb757047c2b5f3974fe26b7c10f732e7bce710b0952a71082702781e62ae05959181900360200190a360008082556001909101555050565b60015460005b81811015610b1357610b0b816107b7565b600101610afa565b5050565b610b1f61111d565b6001600160a01b0316610b30610cc8565b6001600160a01b031614610b79576040805162461bcd60e51b81526020600482018190526024820152600080516020611878833981519152604482015290519081900360640190fd5b8015610b8757610b87610af4565b610bc482610bbe60018681548110610b9b57fe5b90600052602060002090600402016001015460035461124290919063ffffffff16565b90611121565b6003819055508160018481548110610bd857fe5b906000526020600020906004020160010181905550505050565b610bfa61111d565b6001600160a01b0316610c0b610cc8565b6001600160a01b031614610c54576040805162461bcd60e51b81526020600482018190526024820152600080516020611878833981519152604482015290519081900360640190fd5b600080546040516001600160a01b03909116907f8be0079c531659141344cd1fd0a4f28419497f9722a3daafe3b4186f6b6457e0908390a3600080546001600160a01b0319169055565b6000610cbe610cab610d2a565b681a055690d9db8000009060020a6111db565b905090565b600a81565b6000546001600160a01b031690565b6000808211610cf657610cef600a6108a58486611242565b9050610d00565b610cef8284611242565b92915050565b60026020908152600092835260408084209091529082529020805460019091015482565b6000610cbe7f00000000000000000000000000000000000000000000000000000000000000006106f5437f0000000000000000000000000000000000000000000000000000000000000000611242565b60008060018481548110610d8a57fe5b600091825260208083208784526002825260408085206001600160a01b03898116875290845281862060049586029093016003810154815484516370a0823160e01b81523098810198909852935191985093969395939492909116926370a08231926024808301939192829003018186803b158015610e0857600080fd5b505afa158015610e1c573d6000803e3d6000fd5b505050506040513d6020811015610e3257600080fd5b5051600285015490915043118015610e4957508015155b15610eb3576000610e5e856002015443610cd7565b90506000610e7b6003546106f588600101546108a561089e610c9e565b9050610e8b61097d82600a6111db565b9050610eae610ea7846106f58468056bc75e2d63100000611182565b8590611121565b935050505b610edf83600101546106fb68056bc75e2d631000006106f586886000015461118290919063ffffffff16565b979650505050505050565b7f000000000000000000000000000000000000000000000000000000000000000081565b600060018381548110610f1d57fe5b60009182526020808320868452600282526040808520338652909252922060049091029091019150610f4e846107b7565b805415610f95576000610f8782600101546106fb68056bc75e2d631000006106f58760030154876000015461118290919063ffffffff16565b9050610f93338261129f565b505b8154610fac906001600160a01b03163330866114e8565b8054610fb89084611121565b8082556003830154610fd99168056bc75e2d63100000916106f59190611182565b6001820155604080518481529051859133917f90890809c654f11d6e72a28fa60149770a0d11ec6c92319d6ceb2bb0a4ea1a159181900360200190a350505050565b61102361111d565b6001600160a01b0316611034610cc8565b6001600160a01b03161461107d576040805162461bcd60e51b81526020600482018190526024820152600080516020611878833981519152604482015290519081900360640190fd5b6001600160a01b0381166110c25760405162461bcd60e51b815260040180806020018281038252602681526020018061180b6026913960400191505060405180910390fd5b600080546040516001600160a01b03808516939216917f8be0079c531659141344cd1fd0a4f28419497f9722a3daafe3b4186f6b6457e091a3600080546001600160a01b0319166001600160a01b0392909216919091179055565b3390565b60008282018381101561117b576040805162461bcd60e51b815260206004820152601b60248201527f536166654d6174683a206164646974696f6e206f766572666c6f770000000000604482015290519081900360640190fd5b9392505050565b60008261119157506000610d00565b8282028284828161119e57fe5b041461117b5760405162461bcd60e51b81526004018080602001828103825260218152602001806118576021913960400191505060405180910390fd5b6000808211611231576040805162461bcd60e51b815260206004820152601a60248201527f536166654d6174683a206469766973696f6e206279207a65726f000000000000604482015290519081900360640190fd5b81838161123a57fe5b049392505050565b600082821115611299576040805162461bcd60e51b815260206004820152601e60248201527f536166654d6174683a207375627472616374696f6e206f766572666c6f770000604482015290519081900360640190fd5b50900390565b60007f00000000000000000000000000000000000000000000000000000000000000006001600160a01b03166370a08231306040518263ffffffff1660e01b815260040180826001600160a01b0316815260200191505060206040518083038186803b15801561130e57600080fd5b505afa158015611322573d6000803e3d6000fd5b505050506040513d602081101561133857600080fd5b50519050808211156113ed577f00000000000000000000000000000000000000000000000000000000000000006001600160a01b031663a9059cbb84836040518363ffffffff1660e01b815260040180836001600160a01b0316815260200182815260200192505050602060405180830381600087803b1580156113bb57600080fd5b505af11580156113cf573d6000803e3d6000fd5b505050506040513d60208110156113e557600080fd5b506114919050565b7f00000000000000000000000000000000000000000000000000000000000000006001600160a01b031663a9059cbb84846040518363ffffffff1660e01b815260040180836001600160a01b0316815260200182815260200192505050602060405180830381600087803b15801561146457600080fd5b505af1158015611478573d6000803e3d6000fd5b505050506040513d602081101561148e57600080fd5b50505b505050565b604080516001600160a01b038416602482015260448082018490528251808303909101815260649091019091526020810180516001600160e01b031663a9059cbb60e01b179052611491908490611548565b604080516001600160a01b0380861660248301528416604482015260648082018490528251808303909101815260849091019091526020810180516001600160e01b03166323b872dd60e01b179052611542908590611548565b50505050565b600061159d826040518060400160405280602081526020017f5361666545524332303a206c6f772d6c6576656c2063616c6c206661696c6564815250856001600160a01b03166115f99092919063ffffffff16565b805190915015611491578080602001905160208110156115bc57600080fd5b50516114915760405162461bcd60e51b815260040180806020018281038252602a815260200180611898602a913960400191505060405180910390fd5b60606116088484600085611610565b949350505050565b6060824710156116515760405162461bcd60e51b81526004018080602001828103825260268152602001806118316026913960400191505060405180910390fd5b61165a85611760565b6116ab576040805162461bcd60e51b815260206004820152601d60248201527f416464726573733a2063616c6c20746f206e6f6e2d636f6e7472616374000000604482015290519081900360640190fd5b600080866001600160a01b031685876040518082805190602001908083835b602083106116e95780518252601f1990920191602091820191016116ca565b6001836020036101000a03801982511681845116808217855250505050505090500191505060006040518083038185875af1925050503d806000811461174b576040519150601f19603f3d011682016040523d82523d6000602084013e611750565b606091505b5091509150610edf828286611766565b3b151590565b6060831561177557508161117b565b8251156117855782518084602001fd5b8160405162461bcd60e51b81526004018080602001828103825283818151815260200191508051906020019080838360005b838110156117cf5781810151838201526020016117b7565b50505050905090810190601f1680156117fc5780820380516001836020036101000a031916815260200191505b509250505060405180910390fdfe4f776e61626c653a206e6577206f776e657220697320746865207a65726f2061646472657373416464726573733a20696e73756666696369656e742062616c616e636520666f722063616c6c536166654d6174683a206d756c7469706c69636174696f6e206f766572666c6f774f776e61626c653a2063616c6c6572206973206e6f7420746865206f776e65725361666545524332303a204552433230206f7065726174696f6e20646964206e6f742073756363656564a264697066735822122013ce79981310bbbfe3d67115e011bfc239a60b0495ac55b5594e5271156265f364736f6c63430007060033",
  "devdoc": {
    "kind": "dev",
    "methods": {
      "owner()": {
        "details": "Returns the address of the current owner."
      },
      "renounceOwnership()": {
        "details": "Leaves the contract without owner. It will not be possible to call `onlyOwner` functions anymore. Can only be called by the current owner. NOTE: Renouncing ownership will leave the contract without an owner, thereby removing any functionality that is only available to the owner."
      },
      "transferOwnership(address)": {
        "details": "Transfers ownership of the contract to a new account (`newOwner`). Can only be called by the current owner."
      }
    },
    "version": 1
  },
  "userdoc": {
    "kind": "user",
    "methods": {},
    "version": 1
  },
  "storageLayout": {
    "storage": [
      {
        "astId": 7,
        "contract": "contracts/MasterChef.sol:MasterChef",
        "label": "_owner",
        "offset": 0,
        "slot": "0",
        "type": "t_address"
      },
      {
        "astId": 2125,
        "contract": "contracts/MasterChef.sol:MasterChef",
        "label": "poolInfo",
        "offset": 0,
        "slot": "1",
        "type": "t_array(t_struct(PoolInfo)2108_storage)dyn_storage"
      },
      {
        "astId": 2131,
        "contract": "contracts/MasterChef.sol:MasterChef",
        "label": "userInfo",
        "offset": 0,
        "slot": "2",
        "type": "t_mapping(t_uint256,t_mapping(t_address,t_struct(UserInfo)2099_storage))"
      },
      {
        "astId": 2134,
        "contract": "contracts/MasterChef.sol:MasterChef",
        "label": "totalAllocPoint",
        "offset": 0,
        "slot": "3",
        "type": "t_uint256"
      }
    ],
    "types": {
      "t_address": {
        "encoding": "inplace",
        "label": "address",
        "numberOfBytes": "20"
      },
      "t_array(t_struct(PoolInfo)2108_storage)dyn_storage": {
        "base": "t_struct(PoolInfo)2108_storage",
        "encoding": "dynamic_array",
        "label": "struct MasterChef.PoolInfo[]",
        "numberOfBytes": "32"
      },
      "t_contract(IERC20)1045": {
        "encoding": "inplace",
        "label": "contract IERC20",
        "numberOfBytes": "20"
      },
      "t_mapping(t_address,t_struct(UserInfo)2099_storage)": {
        "encoding": "mapping",
        "key": "t_address",
        "label": "mapping(address => struct MasterChef.UserInfo)",
        "numberOfBytes": "32",
        "value": "t_struct(UserInfo)2099_storage"
      },
      "t_mapping(t_uint256,t_mapping(t_address,t_struct(UserInfo)2099_storage))": {
        "encoding": "mapping",
        "key": "t_uint256",
        "label": "mapping(uint256 => mapping(address => struct MasterChef.UserInfo))",
        "numberOfBytes": "32",
        "value": "t_mapping(t_address,t_struct(UserInfo)2099_storage)"
      },
      "t_struct(PoolInfo)2108_storage": {
        "encoding": "inplace",
        "label": "struct MasterChef.PoolInfo",
        "members": [
          {
            "astId": 2101,
            "contract": "contracts/MasterChef.sol:MasterChef",
            "label": "lpToken",
            "offset": 0,
            "slot": "0",
            "type": "t_contract(IERC20)1045"
          },
          {
            "astId": 2103,
            "contract": "contracts/MasterChef.sol:MasterChef",
            "label": "allocPoint",
            "offset": 0,
            "slot": "1",
            "type": "t_uint256"
          },
          {
            "astId": 2105,
            "contract": "contracts/MasterChef.sol:MasterChef",
            "label": "lastRewardBlock",
            "offset": 0,
            "slot": "2",
            "type": "t_uint256"
          },
          {
            "astId": 2107,
            "contract": "contracts/MasterChef.sol:MasterChef",
            "label": "accPredictoPerShare",
            "offset": 0,
            "slot": "3",
            "type": "t_uint256"
          }
        ],
        "numberOfBytes": "128"
      },
      "t_struct(UserInfo)2099_storage": {
        "encoding": "inplace",
        "label": "struct MasterChef.UserInfo",
        "members": [
          {
            "astId": 2096,
            "contract": "contracts/MasterChef.sol:MasterChef",
            "label": "amount",
            "offset": 0,
            "slot": "0",
            "type": "t_uint256"
          },
          {
            "astId": 2098,
            "contract": "contracts/MasterChef.sol:MasterChef",
            "label": "rewardDebt",
            "offset": 0,
            "slot": "1",
            "type": "t_uint256"
          }
        ],
        "numberOfBytes": "64"
      },
      "t_uint256": {
        "encoding": "inplace",
        "label": "uint256",
        "numberOfBytes": "32"
      }
    }
  }
}