{
  "address": "0xd7e1a41A86e9973C16458Fb05DcBBFE31f9804De",
  "abi": [
    {
      "inputs": [
        {
          "internalType": "string",
          "name": "name",
          "type": "string"
        },
        {
          "internalType": "string",
          "name": "symbol",
          "type": "string"
        },
        {
          "internalType": "uint8",
          "name": "decimals",
          "type": "uint8"
        },
        {
          "internalType": "uint256",
          "name": "initialBalance",
          "type": "uint256"
        },
        {
          "internalType": "address payable",
          "name": "feeReceiver",
          "type": "address"
        }
      ],
      "stateMutability": "payable",
      "type": "constructor"
    },
    {
      "anonymous": false,
      "inputs": [
        {
          "indexed": true,
          "internalType": "address",
          "name": "owner",
          "type": "address"
        },
        {
          "indexed": true,
          "internalType": "address",
          "name": "spender",
          "type": "address"
        },
        {
          "indexed": false,
          "internalType": "uint256",
          "name": "value",
          "type": "uint256"
        }
      ],
      "name": "Approval",
      "type": "event"
    },
    {
      "anonymous": false,
      "inputs": [],
      "name": "MintFinished",
      "type": "event"
    },
    {
      "anonymous": false,
      "inputs": [
        {
          "indexed": true,
          "internalType": "address",
          "name": "previousOwner",
          "type": "address"
        },
        {
          "indexed": true,
          "internalType": "address",
          "name": "newOwner",
          "type": "address"
        }
      ],
      "name": "OwnershipTransferred",
      "type": "event"
    },
    {
      "anonymous": false,
      "inputs": [
        {
          "indexed": true,
          "internalType": "address",
          "name": "from",
          "type": "address"
        },
        {
          "indexed": true,
          "internalType": "address",
          "name": "to",
          "type": "address"
        },
        {
          "indexed": false,
          "internalType": "uint256",
          "name": "value",
          "type": "uint256"
        }
      ],
      "name": "Transfer",
      "type": "event"
    },
    {
      "inputs": [
        {
          "internalType": "address",
          "name": "owner",
          "type": "address"
        },
        {
          "internalType": "address",
          "name": "spender",
          "type": "address"
        }
      ],
      "name": "allowance",
      "outputs": [
        {
          "internalType": "uint256",
          "name": "",
          "type": "uint256"
        }
      ],
      "stateMutability": "view",
      "type": "function"
    },
    {
      "inputs": [
        {
          "internalType": "address",
          "name": "spender",
          "type": "address"
        },
        {
          "internalType": "uint256",
          "name": "amount",
          "type": "uint256"
        }
      ],
      "name": "approve",
      "outputs": [
        {
          "internalType": "bool",
          "name": "",
          "type": "bool"
        }
      ],
      "stateMutability": "nonpayable",
      "type": "function"
    },
    {
      "inputs": [
        {
          "internalType": "address",
          "name": "account",
          "type": "address"
        }
      ],
      "name": "balanceOf",
      "outputs": [
        {
          "internalType": "uint256",
          "name": "",
          "type": "uint256"
        }
      ],
      "stateMutability": "view",
      "type": "function"
    },
    {
      "inputs": [
        {
          "internalType": "uint256",
          "name": "amount",
          "type": "uint256"
        }
      ],
      "name": "burn",
      "outputs": [],
      "stateMutability": "nonpayable",
      "type": "function"
    },
    {
      "inputs": [
        {
          "internalType": "address",
          "name": "account",
          "type": "address"
        },
        {
          "internalType": "uint256",
          "name": "amount",
          "type": "uint256"
        }
      ],
      "name": "burnFrom",
      "outputs": [],
      "stateMutability": "nonpayable",
      "type": "function"
    },
    {
      "inputs": [],
      "name": "decimals",
      "outputs": [
        {
          "internalType": "uint8",
          "name": "",
          "type": "uint8"
        }
      ],
      "stateMutability": "view",
      "type": "function"
    },
    {
      "inputs": [
        {
          "internalType": "address",
          "name": "spender",
          "type": "address"
        },
        {
          "internalType": "uint256",
          "name": "subtractedValue",
          "type": "uint256"
        }
      ],
      "name": "decreaseAllowance",
      "outputs": [
        {
          "internalType": "bool",
          "name": "",
          "type": "bool"
        }
      ],
      "stateMutability": "nonpayable",
      "type": "function"
    },
    {
      "inputs": [],
      "name": "finishMinting",
      "outputs": [],
      "stateMutability": "nonpayable",
      "type": "function"
    },
    {
      "inputs": [],
      "name": "getOwner",
      "outputs": [
        {
          "internalType": "address",
          "name": "",
          "type": "address"
        }
      ],
      "stateMutability": "view",
      "type": "function"
    },
    {
      "inputs": [
        {
          "internalType": "address",
          "name": "spender",
          "type": "address"
        },
        {
          "internalType": "uint256",
          "name": "addedValue",
          "type": "uint256"
        }
      ],
      "name": "increaseAllowance",
      "outputs": [
        {
          "internalType": "bool",
          "name": "",
          "type": "bool"
        }
      ],
      "stateMutability": "nonpayable",
      "type": "function"
    },
    {
      "inputs": [
        {
          "internalType": "address",
          "name": "account",
          "type": "address"
        },
        {
          "internalType": "uint256",
          "name": "amount",
          "type": "uint256"
        }
      ],
      "name": "mint",
      "outputs": [],
      "stateMutability": "nonpayable",
      "type": "function"
    },
    {
      "inputs": [],
      "name": "mintingFinished",
      "outputs": [
        {
          "internalType": "bool",
          "name": "",
          "type": "bool"
        }
      ],
      "stateMutability": "view",
      "type": "function"
    },
    {
      "inputs": [],
      "name": "name",
      "outputs": [
        {
          "internalType": "string",
          "name": "",
          "type": "string"
        }
      ],
      "stateMutability": "view",
      "type": "function"
    },
    {
      "inputs": [],
      "name": "owner",
      "outputs": [
        {
          "internalType": "address",
          "name": "",
          "type": "address"
        }
      ],
      "stateMutability": "view",
      "type": "function"
    },
    {
      "inputs": [],
      "name": "renounceOwnership",
      "outputs": [],
      "stateMutability": "nonpayable",
      "type": "function"
    },
    {
      "inputs": [],
      "name": "symbol",
      "outputs": [
        {
          "internalType": "string",
          "name": "",
          "type": "string"
        }
      ],
      "stateMutability": "view",
      "type": "function"
    },
    {
      "inputs": [],
      "name": "totalSupply",
      "outputs": [
        {
          "internalType": "uint256",
          "name": "",
          "type": "uint256"
        }
      ],
      "stateMutability": "view",
      "type": "function"
    },
    {
      "inputs": [
        {
          "internalType": "address",
          "name": "recipient",
          "type": "address"
        },
        {
          "internalType": "uint256",
          "name": "amount",
          "type": "uint256"
        }
      ],
      "name": "transfer",
      "outputs": [
        {
          "internalType": "bool",
          "name": "",
          "type": "bool"
        }
      ],
      "stateMutability": "nonpayable",
      "type": "function"
    },
    {
      "inputs": [
        {
          "internalType": "address",
          "name": "sender",
          "type": "address"
        },
        {
          "internalType": "address",
          "name": "recipient",
          "type": "address"
        },
        {
          "internalType": "uint256",
          "name": "amount",
          "type": "uint256"
        }
      ],
      "name": "transferFrom",
      "outputs": [
        {
          "internalType": "bool",
          "name": "",
          "type": "bool"
        }
      ],
      "stateMutability": "nonpayable",
      "type": "function"
    },
    {
      "inputs": [
        {
          "internalType": "address",
          "name": "newOwner",
          "type": "address"
        }
      ],
      "name": "transferOwnership",
      "outputs": [],
      "stateMutability": "nonpayable",
      "type": "function"
    }
  ],
  "transactionHash": "0x1ff82f9395844847ef24ee3790a5199d2fbda0390d68717dcf3b86bb6b7e4a41",
  "args": [
    "Predicto",
    "PREDICT",
    18,
    "1530000000000000000000000000",
    "0xE55601E953d6E5532b1143926EE55897322cA1e1"
  ],
  "solcInputHash": "105630fa745dec505fd0a970b70df8a4",
  "bytecode": "0x608060408190526006805461ff00191690556200186338819003908190833981810160405260a08110156200003357600080fd5b81019080805160405193929190846401000000008211156200005457600080fd5b9083019060208201858111156200006a57600080fd5b82516401000000008111828201881017156200008557600080fd5b82525081516020918201929091019080838360005b83811015620000b45781810151838201526020016200009a565b50505050905090810190601f168015620000e25780820380516001836020036101000a031916815260200191505b50604052602001805160405193929190846401000000008211156200010657600080fd5b9083019060208201858111156200011c57600080fd5b82516401000000008111828201881017156200013757600080fd5b82525081516020918201929091019080838360005b83811015620001665781810151838201526020016200014c565b50505050905090810190601f168015620001945780820380516001836020036101000a031916815260200191505b50604081815260208381015184830151606090950151848401909352600e84526d0556e6c696d6974656442455032360941b918401919091529450919250819086866000620001e262000363565b600080546001600160a01b0319166001600160a01b0383169081178255604051929350917f8be0079c531659141344cd1fd0a4f28419497f9722a3daafe3b4186f6b6457e0908290a3508151620002419060049060208501906200057f565b508051620002579060059060208401906200057f565b50506006805460ff19166012179055506040516315b36b9760e11b81526020600482018181528351602484015283516001600160a01b03861693632b66d72e9334938793909283926044909101919085019080838360005b83811015620002c9578181015183820152602001620002af565b50505050905090810190601f168015620002f75780820380516001836020036101000a031916815260200191505b50925050506000604051808303818588803b1580156200031657600080fd5b505af11580156200032b573d6000803e3d6000fd5b5050505050505062000343836200036760201b60201c565b620003586200035162000363565b836200037d565b50505050506200062b565b3390565b6006805460ff191660ff92909216919091179055565b6200038762000363565b6000546001600160a01b03908116911614620003ea576040805162461bcd60e51b815260206004820181905260248201527f4f776e61626c653a2063616c6c6572206973206e6f7420746865206f776e6572604482015290519081900360640190fd5b6200040182826200040560201b620009b11760201c565b5050565b6001600160a01b03821662000461576040805162461bcd60e51b815260206004820152601f60248201527f42455032303a206d696e7420746f20746865207a65726f206164647265737300604482015290519081900360640190fd5b6200046f6000838362000518565b6200048b816003546200051d60201b62000aa31790919060201c565b6003556001600160a01b038216600090815260016020908152604090912054620004c091839062000aa36200051d821b17901c565b6001600160a01b03831660008181526001602090815260408083209490945583518581529351929391927fddf252ad1be2c89b69c2b068fc378daa952ba7f163c4a11628f55a4df523b3ef9281900390910190a35050565b505050565b60008282018381101562000578576040805162461bcd60e51b815260206004820152601b60248201527f536166654d6174683a206164646974696f6e206f766572666c6f770000000000604482015290519081900360640190fd5b9392505050565b828054600181600116156101000203166002900490600052602060002090601f016020900481019282620005b7576000855562000602565b82601f10620005d257805160ff191683800117855562000602565b8280016001018555821562000602579182015b8281111562000602578251825591602001919060010190620005e5565b506200061092915062000614565b5090565b5b8082111562000610576000815560010162000615565b611228806200063b6000396000f3fe608060405234801561001057600080fd5b506004361061012c5760003560e01c8063715018a6116100ad57806395d89b411161007157806395d89b4114610369578063a457c2d714610371578063a9059cbb1461039d578063dd62ed3e146103c9578063f2fde38b146103f75761012c565b8063715018a61461030157806379cc6790146103095780637d64bcb414610335578063893d20e81461033d5780638da5cb5b146103615761012c565b8063313ce567116100f4578063313ce56714610246578063395093511461026457806340c10f191461029057806342966c68146102be57806370a08231146102db5761012c565b806305d2035b1461013157806306fdde031461014d578063095ea7b3146101ca57806318160ddd146101f657806323b872dd14610210575b600080fd5b61013961041d565b604080519115158252519081900360200190f35b61015561042b565b6040805160208082528351818301528351919283929083019185019080838360005b8381101561018f578181015183820152602001610177565b50505050905090810190601f1680156101bc5780820380516001836020036101000a031916815260200191505b509250505060405180910390f35b610139600480360360408110156101e057600080fd5b506001600160a01b0381351690602001356104c1565b6101fe6104de565b60408051918252519081900360200190f35b6101396004803603606081101561022657600080fd5b506001600160a01b038135811691602081013590911690604001356104e4565b61024e61056b565b6040805160ff9092168252519081900360200190f35b6101396004803603604081101561027a57600080fd5b506001600160a01b038135169060200135610574565b6102bc600480360360408110156102a657600080fd5b506001600160a01b0381351690602001356105c2565b005b6102bc600480360360208110156102d457600080fd5b5035610617565b6101fe600480360360208110156102f157600080fd5b50356001600160a01b031661062b565b6102bc610646565b6102bc6004803603604081101561031f57600080fd5b506001600160a01b0381351690602001356106e8565b6102bc610742565b610345610793565b604080516001600160a01b039092168252519081900360200190f35b6103456107a2565b6101556107b1565b6101396004803603604081101561038757600080fd5b506001600160a01b038135169060200135610812565b610139600480360360408110156103b357600080fd5b506001600160a01b03813516906020013561087a565b6101fe600480360360408110156103df57600080fd5b506001600160a01b038135811691602001351661088e565b6102bc6004803603602081101561040d57600080fd5b50356001600160a01b03166108b9565b600654610100900460ff1690565b60048054604080516020601f60026000196101006001881615020190951694909404938401819004810282018101909252828152606093909290918301828280156104b75780601f1061048c576101008083540402835291602001916104b7565b820191906000526020600020905b81548152906001019060200180831161049a57829003601f168201915b5050505050905090565b60006104d56104ce610b04565b8484610b08565b50600192915050565b60035490565b60006104f1848484610bf4565b610561846104fd610b04565b61055c856040518060600160405280602881526020016110b4602891396001600160a01b038a1660009081526002602052604081209061053b610b04565b6001600160a01b031681526020810191909152604001600020549190610d51565b610b08565b5060019392505050565b60065460ff1690565b60006104d5610581610b04565b8461055c8560026000610592610b04565b6001600160a01b03908116825260208083019390935260409182016000908120918c168152925290205490610aa3565b600654610100900460ff16156106095760405162461bcd60e51b81526004018080602001828103825260228152602001806110926022913960400191505060405180910390fd5b6106138282610de8565b5050565b610628610622610b04565b82610e4a565b50565b6001600160a01b031660009081526001602052604090205490565b61064e610b04565b6000546001600160a01b0390811691161461069e576040805162461bcd60e51b815260206004820181905260248201526000805160206110dc833981519152604482015290519081900360640190fd5b600080546040516001600160a01b03909116907f8be0079c531659141344cd1fd0a4f28419497f9722a3daafe3b4186f6b6457e0908390a3600080546001600160a01b0319169055565b600061071f826040518060600160405280602481526020016111ad6024913961071886610713610b04565b61088e565b9190610d51565b90506107338361072d610b04565b83610b08565b61073d8383610e4a565b505050565b600654610100900460ff16156107895760405162461bcd60e51b81526004018080602001828103825260228152602001806110926022913960400191505060405180910390fd5b610791610f46565b565b600061079d6107a2565b905090565b6000546001600160a01b031690565b60058054604080516020601f60026000196101006001881615020190951694909404938401819004810282018101909252828152606093909290918301828280156104b75780601f1061048c576101008083540402835291602001916104b7565b60006104d561081f610b04565b8461055c856040518060600160405280602581526020016111456025913960026000610849610b04565b6001600160a01b03908116825260208083019390935260409182016000908120918d16815292529020549190610d51565b60006104d5610887610b04565b8484610bf4565b6001600160a01b03918216600090815260026020908152604080832093909416825291909152205490565b6108c1610b04565b6000546001600160a01b03908116911614610911576040805162461bcd60e51b815260206004820181905260248201526000805160206110dc833981519152604482015290519081900360640190fd5b6001600160a01b0381166109565760405162461bcd60e51b815260040180806020018281038252602681526020018061106c6026913960400191505060405180910390fd5b600080546040516001600160a01b03808516939216917f8be0079c531659141344cd1fd0a4f28419497f9722a3daafe3b4186f6b6457e091a3600080546001600160a01b0319166001600160a01b0392909216919091179055565b6001600160a01b038216610a0c576040805162461bcd60e51b815260206004820152601f60248201527f42455032303a206d696e7420746f20746865207a65726f206164647265737300604482015290519081900360640190fd5b610a186000838361073d565b600354610a259082610aa3565b6003556001600160a01b038216600090815260016020526040902054610a4b9082610aa3565b6001600160a01b03831660008181526001602090815260408083209490945583518581529351929391927fddf252ad1be2c89b69c2b068fc378daa952ba7f163c4a11628f55a4df523b3ef9281900390910190a35050565b600082820183811015610afd576040805162461bcd60e51b815260206004820152601b60248201527f536166654d6174683a206164646974696f6e206f766572666c6f770000000000604482015290519081900360640190fd5b9392505050565b3390565b6001600160a01b038316610b4d5760405162461bcd60e51b81526004018080602001828103825260248152602001806110486024913960400191505060405180910390fd5b6001600160a01b038216610b925760405162461bcd60e51b81526004018080602001828103825260228152602001806111d16022913960400191505060405180910390fd5b6001600160a01b03808416600081815260026020908152604080832094871680845294825291829020859055815185815291517f8c5be1e5ebec7d5bd14f71427d1e84f3dd0314c0f7b2291e5b200ac8c7c3b9259281900390910190a3505050565b6001600160a01b038316610c395760405162461bcd60e51b81526004018080602001828103825260258152602001806110236025913960400191505060405180910390fd5b6001600160a01b038216610c7e5760405162461bcd60e51b81526004018080602001828103825260238152602001806111226023913960400191505060405180910390fd5b610c8983838361073d565b610cc6816040518060600160405280602681526020016110fc602691396001600160a01b0386166000908152600160205260409020549190610d51565b6001600160a01b038085166000908152600160205260408082209390935590841681522054610cf59082610aa3565b6001600160a01b0380841660008181526001602090815260409182902094909455805185815290519193928716927fddf252ad1be2c89b69c2b068fc378daa952ba7f163c4a11628f55a4df523b3ef92918290030190a3505050565b60008184841115610de05760405162461bcd60e51b81526004018080602001828103825283818151815260200191508051906020019080838360005b83811015610da5578181015183820152602001610d8d565b50505050905090810190601f168015610dd25780820380516001836020036101000a031916815260200191505b509250505060405180910390fd5b505050900390565b610df0610b04565b6000546001600160a01b03908116911614610e40576040805162461bcd60e51b815260206004820181905260248201526000805160206110dc833981519152604482015290519081900360640190fd5b61061382826109b1565b6001600160a01b038216610e8f5760405162461bcd60e51b815260040180806020018281038252602181526020018061116a6021913960400191505060405180910390fd5b610e9b8260008361073d565b610ed88160405180606001604052806022815260200161118b602291396001600160a01b0385166000908152600160205260409020549190610d51565b6001600160a01b038316600090815260016020526040902055600354610efe9082610fa6565b6003556040805182815290516000916001600160a01b038516917fddf252ad1be2c89b69c2b068fc378daa952ba7f163c4a11628f55a4df523b3ef9181900360200190a35050565b610f4e610b04565b6000546001600160a01b03908116911614610f9e576040805162461bcd60e51b815260206004820181905260248201526000805160206110dc833981519152604482015290519081900360640190fd5b610791610fe8565b6000610afd83836040518060400160405280601e81526020017f536166654d6174683a207375627472616374696f6e206f766572666c6f770000815250610d51565b6006805461ff0019166101001790556040517fae5184fba832cb2b1f702aca6117b8d265eaf03ad33eb133f19dde0f5920fa0890600090a156fe42455032303a207472616e736665722066726f6d20746865207a65726f206164647265737342455032303a20617070726f76652066726f6d20746865207a65726f20616464726573734f776e61626c653a206e6577206f776e657220697320746865207a65726f206164647265737342455032304d696e7461626c653a206d696e74696e672069732066696e697368656442455032303a207472616e7366657220616d6f756e74206578636565647320616c6c6f77616e63654f776e61626c653a2063616c6c6572206973206e6f7420746865206f776e657242455032303a207472616e7366657220616d6f756e7420657863656564732062616c616e636542455032303a207472616e7366657220746f20746865207a65726f206164647265737342455032303a2064656372656173656420616c6c6f77616e63652062656c6f77207a65726f42455032303a206275726e2066726f6d20746865207a65726f206164647265737342455032303a206275726e20616d6f756e7420657863656564732062616c616e636542455032303a206275726e20616d6f756e74206578636565647320616c6c6f77616e636542455032303a20617070726f766520746f20746865207a65726f2061646472657373a26469706673582212200cf854595bc3254a900bf216baeb0452235d32906ad04a5eb8143df69a5fae1d64736f6c63430007060033",
  "devdoc": {
    "details": "Implementation of the UnlimitedBEP20",
    "kind": "dev",
    "methods": {
      "allowance(address,address)": {
        "details": "See {IBEP20-allowance}."
      },
      "approve(address,uint256)": {
        "details": "See {IBEP20-approve}. Requirements: - `spender` cannot be the zero address."
      },
      "balanceOf(address)": {
        "details": "See {IBEP20-balanceOf}."
      },
      "burn(uint256)": {
        "details": "Destroys `amount` tokens from the caller. See {BEP20-_burn}."
      },
      "burnFrom(address,uint256)": {
        "details": "Destroys `amount` tokens from `account`, deducting from the caller's allowance. See {BEP20-_burn} and {BEP20-allowance}. Requirements: - the caller must have allowance for ``accounts``'s tokens of at least `amount`."
      },
      "decimals()": {
        "details": "Returns the number of decimals used to get its user representation. For example, if `decimals` equals `2`, a balance of `505` tokens should be displayed to a user as `5,05` (`505 / 10 ** 2`). Tokens usually opt for a value of 18, imitating the relationship between Ether and Wei. This is the value {BEP20} uses, unless {_setupDecimals} is called. NOTE: This information is only used for _display_ purposes: it in no way affects any of the arithmetic of the contract, including {IBEP20-balanceOf} and {IBEP20-transfer}."
      },
      "decreaseAllowance(address,uint256)": {
        "details": "Atomically decreases the allowance granted to `spender` by the caller. This is an alternative to {approve} that can be used as a mitigation for problems described in {IBEP20-approve}. Emits an {Approval} event indicating the updated allowance. Requirements: - `spender` cannot be the zero address. - `spender` must have allowance for the caller of at least `subtractedValue`."
      },
      "finishMinting()": {
        "details": "Function to stop minting new tokens. WARNING: it allows everyone to finish minting. Access controls MUST be defined in derived contracts."
      },
      "getOwner()": {
        "details": "See {IBEP20-getOwner}."
      },
      "increaseAllowance(address,uint256)": {
        "details": "Atomically increases the allowance granted to `spender` by the caller. This is an alternative to {approve} that can be used as a mitigation for problems described in {IBEP20-approve}. Emits an {Approval} event indicating the updated allowance. Requirements: - `spender` cannot be the zero address."
      },
      "mint(address,uint256)": {
        "details": "Function to mint tokens. WARNING: it allows everyone to mint new tokens. Access controls MUST be defined in derived contracts.",
        "params": {
          "account": "The address that will receive the minted tokens",
          "amount": "The amount of tokens to mint"
        }
      },
      "mintingFinished()": {
        "returns": {
          "_0": "if minting is finished or not."
        }
      },
      "name()": {
        "details": "Returns the name of the token."
      },
      "owner()": {
        "details": "Returns the address of the current owner."
      },
      "renounceOwnership()": {
        "details": "Leaves the contract without owner. It will not be possible to call `onlyOwner` functions anymore. Can only be called by the current owner. NOTE: Renouncing ownership will leave the contract without an owner, thereby removing any functionality that is only available to the owner."
      },
      "symbol()": {
        "details": "Returns the symbol of the token, usually a shorter version of the name."
      },
      "totalSupply()": {
        "details": "See {IBEP20-totalSupply}."
      },
      "transfer(address,uint256)": {
        "details": "See {IBEP20-transfer}. Requirements: - `recipient` cannot be the zero address. - the caller must have a balance of at least `amount`."
      },
      "transferFrom(address,address,uint256)": {
        "details": "See {IBEP20-transferFrom}. Emits an {Approval} event indicating the updated allowance. This is not required by the EIP. See the note at the beginning of {BEP20}. Requirements: - `sender` and `recipient` cannot be the zero address. - `sender` must have a balance of at least `amount`. - the caller must have allowance for ``sender``'s tokens of at least `amount`."
      },
      "transferOwnership(address)": {
        "details": "Transfers ownership of the contract to a new account (`newOwner`). Can only be called by the current owner."
      }
    },
    "title": "UnlimitedBEP20",
    "version": 1
  },
  "userdoc": {
    "kind": "user",
    "methods": {},
    "version": 1
  },
  "storageLayout": {
    "storage": [
      {
        "astId": 27,
        "contract": "contracts/UnlimitedBEP20.sol:UnlimitedBEP20",
        "label": "_owner",
        "offset": 0,
        "slot": "0",
        "type": "t_address"
      },
      {
        "astId": 434,
        "contract": "contracts/UnlimitedBEP20.sol:UnlimitedBEP20",
        "label": "_balances",
        "offset": 0,
        "slot": "1",
        "type": "t_mapping(t_address,t_uint256)"
      },
      {
        "astId": 440,
        "contract": "contracts/UnlimitedBEP20.sol:UnlimitedBEP20",
        "label": "_allowances",
        "offset": 0,
        "slot": "2",
        "type": "t_mapping(t_address,t_mapping(t_address,t_uint256))"
      },
      {
        "astId": 442,
        "contract": "contracts/UnlimitedBEP20.sol:UnlimitedBEP20",
        "label": "_totalSupply",
        "offset": 0,
        "slot": "3",
        "type": "t_uint256"
      },
      {
        "astId": 444,
        "contract": "contracts/UnlimitedBEP20.sol:UnlimitedBEP20",
        "label": "_name",
        "offset": 0,
        "slot": "4",
        "type": "t_string_storage"
      },
      {
        "astId": 446,
        "contract": "contracts/UnlimitedBEP20.sol:UnlimitedBEP20",
        "label": "_symbol",
        "offset": 0,
        "slot": "5",
        "type": "t_string_storage"
      },
      {
        "astId": 448,
        "contract": "contracts/UnlimitedBEP20.sol:UnlimitedBEP20",
        "label": "_decimals",
        "offset": 0,
        "slot": "6",
        "type": "t_uint8"
      },
      {
        "astId": 940,
        "contract": "contracts/UnlimitedBEP20.sol:UnlimitedBEP20",
        "label": "_mintingFinished",
        "offset": 1,
        "slot": "6",
        "type": "t_bool"
      }
    ],
    "types": {
      "t_address": {
        "encoding": "inplace",
        "label": "address",
        "numberOfBytes": "20"
      },
      "t_bool": {
        "encoding": "inplace",
        "label": "bool",
        "numberOfBytes": "1"
      },
      "t_mapping(t_address,t_mapping(t_address,t_uint256))": {
        "encoding": "mapping",
        "key": "t_address",
        "label": "mapping(address => mapping(address => uint256))",
        "numberOfBytes": "32",
        "value": "t_mapping(t_address,t_uint256)"
      },
      "t_mapping(t_address,t_uint256)": {
        "encoding": "mapping",
        "key": "t_address",
        "label": "mapping(address => uint256)",
        "numberOfBytes": "32",
        "value": "t_uint256"
      },
      "t_string_storage": {
        "encoding": "bytes",
        "label": "string",
        "numberOfBytes": "32"
      },
      "t_uint256": {
        "encoding": "inplace",
        "label": "uint256",
        "numberOfBytes": "32"
      },
      "t_uint8": {
        "encoding": "inplace",
        "label": "uint8",
        "numberOfBytes": "1"
      }
    }
  }
}